:1000000013C008C134C134C033C032C031C030C0A5
:100010002FC0F6C22DC0F0C12BC02AC029C028C0F5
:1000200027C026C025C03B0611241FBECFE5D4E063
:10003000DEBFCDBF10E0A0E6B0E0E8EEFFE002C01A
:1000400005900D92A63FB107D9F711E0A6EFB0E0F9
:1000500001C01D92AE3CB107E1F710E0C8E2D0E06C
:1000600003C02297FE0185D7C632D107D1F730C32E
:10007000C7CF80913E018823C1F0813019F080E024
:1000800090E005C082E080933E018BEF90E049EF65
:1000900050E060E670E0AED69093F8008093F700F1
:1000A000892B19F081E090E0089580E090E00895B8
:1000B000E0DF882319F480E090E008958091F70054
:1000C0009091F8006BD60895D4DF882319F480E06E
:1000D00090E00895E091F700F091F8008081992771
:1000E00087FD90950895CF93DF9310923E01C0E075
:1000F000D0E02EC089E491E022D580933D018A3082
:10010000E9F020913B0130913C018D3069F4E90127
:10011000F901E550FF4F108210923C0110923B0113
:1001200081E080933E010AC0F901E550FF4F8083D2
:100130002F5F3F4F30933C0120933B0180913B0167
:1001400090913C01CF9724F010923C0110923B011A
:1001500089E491E0F1D4882369F6CE01DF91CF9153
:1001600008958091F600813021F460E289E491E005
:10017000EAD481E08093F60008951F93182FF1DFF1
:10018000612F89E491E0DFD41F9108950F931F93AD
:100190008C01E7DFB80189E491E05CD51F910F91F4
:1001A00008951092F60089E491E0D6D40895823043
:1001B000E8F4E82FFF27EE0FFF1FE15CFE4F71838D
:1001C0006083882341F485B78C7F842B85BF8BB7F0
:1001D00080648BBF089585B7837F440F551F440FFC
:1001E000551F842B85BF8BB780688BBF0895E82F80
:1001F000823078F4882319F48BB78F7B02C08BB7D9
:100200008F778BBFFF27EE0FFF1FE15CFE4F118240
:10021000108208951F920F920FB60F9211242F9300
:100220003F934F935F936F937F938F939F93AF937E
:10023000BF93EF93FF9380913F0190914001892BF1
:1002400029F0E0913F01F09140010995FF91EF9174
:10025000BF91AF919F918F917F916F915F914F91DE
:100260003F912F910F900FBE0F901F9018951F92E6
:100270000F920FB60F9211242F933F934F935F93DA
:100280006F937F938F939F93AF93BF93EF93FF935E
:100290008091410190914201892B29F0E091410127
:1002A000F09142010995FF91EF91BF91AF919F911C
:1002B0008F917F916F915F914F913F912F910F900F
:1002C0000FBE0F901F901895880F991F880F991FC8
:1002D000E0919A00F0919B00E80FF91F80819181D5
:1002E0000895880F991F880F991FE0919A00F09147
:1002F0009B00E80FF91F828193810895880F991F51
:10030000E0917C00F0917D00E80FF91F80819181E0
:100310000895880F991F880F991FE0916200F0914E
:100320006300E80FF91F828193810895EF92FF9295
:100330000F931F937B018C0122E030E040E050E0FE
:10034000E7D5205C3D4B404F5F4FCA01B901A80182
:100350009701DED52150304040405040BB2757FD2B
:10036000BA95A52F942F832F2F5F3F4F4F4F5F4F8D
:1003700080BD215029B9549A539A579A1F910F91D1
:10038000FF90EF9008955D9BFECF8CB9089580910A
:100390004501909146012091430130914401821B17
:1003A000930B60E870E07FD5089540914301509130
:1003B000440180914501909146018417950719F4F5
:1003C0008FEF9FEF0895FA01E25BFE4F2081CA0193
:1003D000019660E870E067D59093440180934301F3
:1003E000822F992708958091430190914401909321
:1003F00046018093450108951F920F920FB60F9208
:1004000011242F933F934F935F936F937F938F9319
:100410009F93AF93BF93EF93FF934CB1E09145014E
:10042000F0914601CF01019660E870E03CD59C0157
:1004300080914301909144012817390739F0E25B1C
:10044000FE4F40833093460120934501FF91EF9189
:10045000BF91AF919F918F917F916F915F914F91DC
:100460003F912F910F900FBE0F901F9018950895F8
:100470008ADF08958AE0FCDF0895CF93DF93EC01D3
:1004800002C02196F5DF88818823D9F7DF91CF91CB
:1004900008952F923F924F925F926F927F928F9228
:1004A0009F92AF92BF92CF92DF92EF92FF920F9303
:1004B0001F93CF93DF93CDB7DEB7A0970FB6F89415
:1004C000DEBF0FBECDBF6B017C0119012A01611592
:1004D00071058105910519F480E3CADF48C06624DF
:1004E000772443015E010894A11CB11C8501060D0F
:1004F000171DC701B601A2019101E8D4F80160837C
:100500000894611C711C811C911CC701B601A201D9
:100510009101DCD469017A012115310541055105AC
:1005200029F773010894E108F108EA0CFB1CAA24DE
:10053000BB24650110C0F70180818A3010F4805D12
:1005400001C0895C95DF0894A108B108C108D108F1
:100550000894E108F10888279927DC018619970992
:10056000A809B909A816B906CA06DB0621F7A0969C
:100570000FB6F894DEBF0FBECDBFDF91CF911F91B4
:100580000F91FF90EF90DF90CF90BF90AF909F9032
:100590008F907F906F905F904F903F902F90089535
:1005A000EF92FF920F931F937B018C0197FF0AC07C
:1005B0008DE25EDF10950095F094E094E11CF11C53
:1005C000011D111D2AE030E040E050E0C801B701F4
:1005D00060DF1F910F91FF90EF90089520E130E0D0
:1005E00040E050E056DF089528E030E040E050E081
:1005F00050DF089522E030E040E050E04ADF089507
:100600001F920F920FB60F9211248F939F93AF9367
:10061000BF9380914A0190914B01A0914C01B09100
:100620004D010196A11DB11D80934A0190934B018C
:10063000A0934C01B0934D01BF91AF919F918F91C9
:100640000F900FBE0F901F90189560914A01709106
:100650004B0180914C0190914D01E7E0660F771FAF
:10066000881F991FEA95D1F72DE730E040E050E070
:100670002DD4CA01B9010895AF92BF92CF92DF92F3
:10068000EF92FF920F931F935B016C01DEDF7B0102
:100690008C01DBDF6E197F09800B910B6A157B05DE
:1006A0008C059D05B0F31F910F91FF90EF90DF90A7
:1006B000CF90BF90AF900895019749F0880F991F90
:1006C000880F991F0297F8940197F1F7789408958D
:1006D000CFE5D4E0DEBFCDBF789410924A011092EE
:1006E0004B0110924C0110924D0183B7826083BF81
:1006F00083B7816083BF89B7816089BF8EB582600F
:100700008EBD8EB581608EBD8FB581608FBD85B584
:10071000846085BD85B5806485BD3F983E9A329AD8
:10072000319A309A379A1AB8D3D1DAD1FECFCF9313
:10073000DF93880F991F880F991FA0919A00B0919D
:100740009B00A80FB91FED91FC911197309731F1E3
:10075000EE0FFF1FED014A815B81672B81F4E851A9
:10076000FF4F0190F081E02D20A181E090E002C0D8
:10077000880F991F4A95E2F7809528230EC0E8510B
:10078000FF4F0190F081E02D20A181E090E002C0B8
:10079000880F991F4A95E2F7282B20A3DF91CF916C
:1007A0000895CF93DF939C01880F991F880F991F9D
:1007B000A0919A00B0919B00A80FB91F4D915C9138
:1007C00011974115510509F444C0220F331FE091E0
:1007D0007C00F0917D00E20FF31F0190F081E02D8D
:1007E000E230F10519F48FB58F7705C0E330F105DC
:1007F00021F48FB58F7D8FBD05C0349719F485B571
:100800008F7D85BDFA01EE0FFF1FED014A815B81EF
:10081000672B81F4E252FF4F0190F081E02D20A17F
:1008200081E090E002C0880F991F4A95E2F7809519
:1008300028230EC0E252FF4F0190F081E02D20A14D
:1008400081E090E002C0880F991F4A95E2F7282BBB
:1008500020A3DF91CF9108959F92AF92BF92CF9244
:10086000DF92EF92FF920F931F93CF93DF936C0170
:100870007B015A01922EC0E0D0E007E010E0692D24
:100880007727A114B10439F40C2E02C07595679531
:100890000A94E2F706C0002E02C0759567950A9487
:1008A000E2F761707070C6017CDF61E070E0C70143
:1008B00078DF60E070E0C70174DF219601501040DE
:1008C000C830D105E1F6DF91CF911F910F91FF90D4
:1008D000EF90DF90CF90BF90AF909F9008950F93CF
:1008E0001F93CF93DF93EC018B0161E070E01FDF7A
:1008F000CE01880F991FE0917C00F0917D00E80FF8
:10090000F91F0190F081E02DE230F10531F48FB54F
:1009100080688FBD1BBD0ABD1AC0E330F10531F4FC
:100920008FB580628FBD19BD08BD11C0349729F401
:1009300085B5806285BD03BD0AC0003811051CF471
:1009400060E070E002C061E070E0CE012ADFDF917C
:10095000CF911F910F910895CF93DF939C01880F42
:10096000991F880F991FC0919A00D0919B00C80FC2
:10097000D91FA881B981109719F480E090E02DC0AB
:10098000220F331FE0917C00F0917D00E20FF31FF6
:100990000190F081E02DE230F10519F48FB58F77E9
:1009A00005C0E330F10521F48FB58F7D8FBD05C003
:1009B000349719F485B58F7D85BDAA0FBB1FAC5246
:1009C000BF4FED91FC9180A199270A8002C09595B7
:1009D00087950A94E2F781709070DF91CF91089526
:1009E000CF93DF93880F991F880F991FA0919A00CA
:1009F000B0919B00A80FB91FED91FC911197EE0FDC
:100A0000FF1FEC52FF4F0190F081E02DED018A8134
:100A10009B81A1E0B0E0082E02C0AA0FBB1F0A9480
:100A2000E2F720E030E0672B11F021E030E0B9017F
:100A300002C0660F771F8A95E2F7EF01A09680A1AA
:100A400099278A239B2386179707C9F720E030E070
:100A500040E050E004C02F5F3F4F4F4F5F4F888111
:100A600099278A239B2386179707A9F3CA01B901FF
:100A700024E130E040E050E0F7D127E130E040E011
:100A800050E024D2CA01B901DF91CF91089527B176
:100A9000207F880F991F880F991FE0916200F091C5
:100AA0006300E80FF91F82818F70282B27B961E05E
:100AB00070E080E090E0E0DD369A3699FECF24B118
:100AC00085B19927982F88273327822B932B089558
:100AD00040E052EC61E070E089E491E029D00895B3
:100AE000CF93DF9300DB892BF1F0EEDA82E780937E
:100AF0004801EADA8093470184E6809348013DDBB0
:100B0000C0E0D0E0CE01C3DF41DB2196C630D10585
:100B1000C9F7C2E0D0E0CE011FDF38DB2196CD302F
:100B2000D105C9F73EDBDF91CF910895089508956F
:100B3000CB01BA01FBDB08952ADC9927089535DC47
:100B4000089551DC0895862F93DC0895CB0195DC40
:100B50000895862F8DDC08950F931F938C016DE00F
:100B6000F2DF6AE0C801EFDF1F910F9108950F9344
:100B70001F938C01E8DFC801EFDF1F910F910895EB
:100B80000F931F938C01E2DFC801E6DF1F910F91E5
:100B900008950F931F938C01DCDFC801DDDF1F91E7
:100BA0000F910895CB01BA0133274427552771DCF3
:100BB00008952AE0F7DF08950F931F938C01F9DF62
:100BC000C801CADF1F910F910895AB0166277727EF
:100BD000F0DF0895EF92FF920F931F93CF93DF936F
:100BE000EC017A018B0177FF0AC06DE2ACDF109552
:100BF0000095F094E094E11CF11C011D111D2AE008
:100C0000B801A701CE01CEDFDF91CF911F910F91E7
:100C1000FF90EF9008950F931F938C01DBDFC801C5
:100C20009BDF1F910F9108952115310519F4642F51
:100C30008ADF08952A30310511F4CCDF0895B2DF40
:100C400008950F931F938C01EFDFC80185DF1F917B
:100C50000F910895AB01662757FD6095762FBADF97
:100C600008950F931F938C01F5DFC80175DF1F9165
:100C70000F91089508950895009709F084D008957C
:100C8000EF92FF920F931F937B018C016115710509
:100C90008105910529F460E070E080E090E00AC0F1
:100CA0006ED0AA2797FDA095BA2FBC01CD01A8014F
:100CB00097012ED11F910F91FF90EF900895EF9221
:100CC000FF920F931F937B018C01621773078407B8
:100CD00095075CF4261B370B480B590BCA01B90169
:100CE000CFDFE60EF71E081F191FC801B7011F91BD
:100CF0000F91FF90EF900895A0E0B0E0E1E8F6E0FA
:100D000044C1EC01E880F9800A811B81C801B70168
:100D10002DE133EF41E050E0D9D027EA31E440E063
:100D200050E0A2D05B016C01C801B7012DE133EFA7
:100D300041E050E0CBD0CA01B90124E13BE040E002
:100D400050E092D0A61AB70AC80AD90A1A141B048E
:100D50001C041D0444F08FEF9FEFAFEFBFE7A80E18
:100D6000B91ECA1EDB1EA882B982CA82DB82C501F7
:100D70009F77EAE0CDB7DEB724C1BEDF089582EFEA
:100D800090E0BADF0895AA27BB278093F2009093E2
:100D9000F300A093F400B093F5000895FC018827B8
:100DA0009927E89421912223E9F02032D9F32930C0
:100DB000C9F32A30B9F32C30A9F32D3099F3263733
:100DC00089F32B3219F02D3221F4689421912223DA
:100DD00049F020333CF02A332CF420533DD0820FCD
:100DE000911DF4CF8115910521F01EF48095909509
:100DF00001960895009731F4DA018D919C91009746
:100E000009F40EC0DC01FB013D912191222319F070
:100E10003217C9F3FACF332331F4DA011D921C9251
:100E20008827992708951197AF93BF93FB013D91B0
:100E30002191321771F4332321F4882799271197D0
:100E400002C01E921196FA01A193B0839F918F91D7
:100E50000895222369F7EACF7AE0979F902D879F24
:100E6000802D910D11240895629FD001739FF00190
:100E7000829FE00DF11D649FE00DF11D929FF00D2A
:100E8000839FF00D749FF00D659FF00D9927729F61
:100E9000B00DE11DF91F639FB00DE11DF91FBD01EC
:100EA000CF011124089597FB092E07260AD077FD5C
:100EB00004D049D006D000201AF4709561957F4F78
:100EC0000895F6F7909581959F4F0895A1E21A2E07
:100ED000AA1BBB1BFD010DC0AA1FBB1FEE1FFF1FDE
:100EE000A217B307E407F50720F0A21BB30BE40B2E
:100EF000F50B661F771F881F991F1A9469F7609575
:100F00007095809590959B01AC01BD01CF0108952E
:100F100097FB092E05260ED057FD04D0D7DF0AD047
:100F2000001C38F450954095309521953F4F4F4F18
:100F30005F4F0895F6F790958095709561957F4F76
:100F40008F4F9F4F0895AA1BBB1B51E107C0AA1FDB
:100F5000BB1FA617B70710F0A61BB70B881F991F5A
:100F60005A95A9F780959095BC01CD010895EE0F93
:100F7000FF1F0590F491E02D09942F923F924F921C
:100F80005F926F927F928F929F92AF92BF92CF9219
:100F9000DF92EF92FF920F931F93CF93DF93CDB722
:100FA000DEB7CA1BDB0B0FB6F894DEBF0FBECDBF9A
:100FB00009942A88398848885F846E847D848C846B
:100FC0009B84AA84B984C884DF80EE80FD800C8174
:100FD0001B81AA81B981CE0FD11D0FB6F894DEBF57
:080FE0000FBECDBFED01089525
:100FE8002000640003000000030001000300020069
:100FF8000300030003000400030005007E00FFFF58
:10100800FFFFFFFFFFFFFFFFFFFFFFFFFFFFFFFFE8
:10101800020003000400FFFFFFFF9C000400000023
:10102800040001000400020004000300040004009E
:101038000400050004000600040007000200000088
:101048000200010002000200020003000200040086
:1010580002000500FFFFFFFF160013001000FFFF4E
:10106800FFFF180015001200FFFFFFFF1700140014
:0610780011000100000060
:00000001FF
